:100000005CC0000081C000007FC000007DC0000017
:100010007BC0000079C0000077C0000075C0000000
:1000200073C00000C7C300006FC000006DC00000B7
:100030006BC0000069C0000067C0000065C0000020
:1000400004C6000061C000000C94DC080C940E098A
:100050005BC0000059C0000057C0000055C0000040
:1000600053C0000051C00000000000080002010061
:100070000003040700000000000000000102040863
:100080001020408001020408102001020408102002
:10009000040404040404040402020202020203032E
:1000A0000303030300000000250028002B000000CC
:1000B0000000240027002A00330911241FBECFEFBF
:1000C000D8E0DEBFCDBF11E0A0E0B1E0ECE8F3E1A5
:1000D00002C005900D92A433B107D9F722E0A4E342
:1000E000B1E001C01D92AE34B207E1F710E0CDE5FA
:1000F000D0E004C02197FE010E94BE09CC35D10793
:10010000C9F7BAD30C94C4097BCF0895CF92DF927C
:10011000EF92FF92CF93882331F16A017B01CFEFF9
:10012000C80F20E030E0A901CB01B60140D487FF21
:1001300010C0C701B601905843D49B01AC016C2F8D
:1001400070E090E080E0CF91FF90EF90DF90CF9053
:10015000ACC0C701B6012FD48C2FCF91FF90EF9088
:10016000DF90CF9012C6CF91FF90EF90DF90CF90AD
:1001700008950F931F938B019C0183E0369527957B
:10018000179507958A95D1F70C5C1E4F462F47703F
:1001900021E030E0F90102C0EE0FFF1F4A95E2F7BF
:1001A000AF01F80120812423CB010196211102C067
:1001B00090E080E01F910F9108950F931F938B01A2
:1001C0009C0183E036952795179507958A95D1F779
:1001D000677081E090E001C0880F6A95EAF7F80146
:1001E000EC5CFE4F2081452B31F480958223808387
:1001F0001F910F910895822BFACF2F923F924F9229
:100200005F926F927F928F929F92AF92BF92CF92A6
:10021000DF92EF92FF920F931F93CF93DF93D62E2F
:10022000C72E782E692E49015A01280161E08D2DD3
:1002300030D6CD2DDC2D8E010F5F1F4FA8016D2D07
:100240007C2D872D962DB9DF20E030E0A901C20179
:10025000B70194D4181654F4C201B701B1D32B01DD
:10026000C501B401ADD3A201CE0122D0C801DF91F6
:10027000CF911F910F91FF90EF90DF90CF90BF90A3
:10028000AF909F908F907F906F905F904F903F9036
:100290002F900895882341F08150682F70E090E0FE
:1002A00080E050E040E089CF0895862FB9016DC508
:1002B0009C01FC01E859FF4FE491E33059F138F417
:1002C000E13009F1E23019F160E0822F1EC6E7301B
:1002D000C1F1E83009F441C0E430B1F78091800009
:1002E0008C7F82608093800090918100907E9061ED
:1002F000692B609381005093870040938600809122
:10030000800080621BC084B5806884BDDDCF84B569
:100310008062FBCF809180008C7F82608093800020
:1003200090918100907E9061692B60938100509341
:1003300087004093860080918000806880938000D1
:10034000C3CF8091B00080688093B0008091B100ED
:10035000887F682B6093B100B7CF8091B000806236
:10036000F3CFCF93DF93882341F0EB018150F2D498
:1003700099838883DF91CF910895FB0111821082C8
:10038000F9CF0F931F938B019C0183E0369527953E
:10039000179507958A95D1F7035C1E4F462F477036
:1003A00021E030E0F90102C0EE0FFF1F4A95E2F7AD
:1003B000AF01F80120812423CB010196211102C055
:1003C00090E080E01F910F9108950F931F938B0190
:1003D0009C0183E036952795179507958A95D1F767
:1003E000677081E090E001C0880F6A95EAF7F80134
:1003F000E35CFE4F2081452B31F48095822380837E
:100400001F910F910895822BFACFCF92DF92EF9236
:10041000FF92CF93DF936B017C0160E08EE0C81602
:10042000D104E104F10488F48EE08C0D32D5E601AC
:100430002196AE01C701B601C8DFCE01DF91CF9191
:10044000FF90EF90DF90CF9008958C2DEFCF882311
:1004500041F08150682F70E090E080E050E040E093
:10046000B4CF08958F929F92AF92BF92CF92DF92B6
:10047000EF92FF920F931F93CF93DF9300D0CDB7EE
:10048000DEB7C0900001D0900101E0900201F09031
:100490000301A70196016091060270910702809105
:1004A00008029091090283D2882341F0C09206028B
:1004B000D0920702E0920802F09209026EE070E02A
:1004C00080E090E05EDF909305028093040243E0B9
:1004D00050E0BE016F5F7F4F44DF6091FA01709181
:1004E000FB018091FC019091FD0143DE6C01909332
:1004F000F9018093F80120911C0130911D01A9811F
:10050000BA812DD789D220E030E040E059E33AD3D8
:10051000209108013091090140910A0150910B018D
:10052000E1D120910C0130910D0140910E015091CB
:100530000F0128D39B01AC0160910401709105016A
:100540008091060190910701CDD120911001309149
:100550001101409112015091130114D34B015C0120
:10056000E0901401F090150100911601109117010F
:100570009B01AC01B701C8011AD287FD11C0E09000
:100580001801F090190100911A0110911B019401BA
:10059000A501B701C801F2D2181614F07401850143
:1005A00020E030E04FE753E4B701C80100D287FFF5
:1005B0001FC020E030E0A901B701C801DFD2181642
:1005C00024F0E12CF12C00E010E0A701B801C601F5
:1005D0009DDD0F900F90DF91CF911F910F91FF90B4
:1005E000EF90DF90CF90BF90AF909F908F90089545
:1005F000E12CF12C0FE713E4E8CF8F929F92AF929A
:10060000BF92DF92EF92FF920F931F93CF93DF93EE
:10061000C0EFD1E01E868091000190910101A09170
:100620000201B09103018E8B9F8BA88FB98F1B8A1B
:10063000812C912C540183948F86988AA98ABA8A36
:100640006EE070E080E090E0E0DE9D8B8C8BDD243E
:10065000D394DB8A188222E32AA793E39BA784E33F
:100660008CA785E38DA786E38EA787E38FA788E312
:1006700088AB89E389AB81E38AAB30E33BAB8CABDE
:100680008DAB8EAB2FAB88AF99AF8AE192E09F83A1
:100690008E8389E090E0A0E0B0E08A879B87AC87FA
:1006A000BD871D8289829A82AB82BC82E12CF12CAB
:1006B0008701A801970169E070E080E090E09DDD8E
:1006C000998788876A857B858C859D8552DD99878A
:1006D00088871BDDDD82DF91CF911F910F91FF9005
:1006E000EF90DF90BF90AF909F908F900895809192
:1006F000FE0181111DC081E08093FE018091FF0108
:1007000090910002A0910102B09102020197A1050F
:10071000B10571F480910302882351F06EE070E01E
:1007200080E090E02EDE90930502809304028FDE3D
:100730008091F001811132C081E08093F0018091BD
:10074000F1019091F201A091F301B091F4010197B0
:10075000A105B10519F58091F5018823F9F06091A3
:10076000FA017091FB018091FC019091FD0101DD86
:100770009093F9018093F80140E050E0BA01C6DCA3
:100780006091FA017091FB018091FC019091FD0153
:10079000F0DC9093F9018093F8017CCD089540E856
:1007A00055E260E070E090E080E000C026E083E584
:1007B00091E0A2C41F920F920FB60F9211242F93B3
:1007C0003F934F935F936F937F938F939F93AF93D9
:1007D000BF93EF93FF9383E88093B200809146012B
:1007E0008F5F80934601893119F4109246012CD015
:1007F000FF91EF91BF91AF919F918F917F916F91F9
:100800005F914F913F912F910F900FBE0F901F90CE
:10081000189583E88093B200E0E7F0E080818E7F56
:100820008083A0EBB0E08C918C7F8C93A1EBB0E047
:100830008C91877F8C938C9187608C938081816071
:100840008083089581E008958091470191E0980F99
:1008500090934701882349F021E030E0309349012B
:10086000209348018093470108957894FBDDF89424
:10087000809147018150F6CFCF93DF9310924D02C4
:1008800010924C022CD28BDFC0911F01D09120011D
:1008900019821882B2DEBDDF81E028813981232BE5
:1008A00009F080E080934C027894789480914C0217
:1008B000811107C01CDFF89490E080E0DF91CF91B8
:1008C000089581E028813981232B09F480E0809309
:1008D0004D0290914D0281E0911180E080934C0295
:1008E000B1DFE4CF5058BB27AA270ED00DC1FED0F0
:1008F00030F003D120F031F49F3F11F41EF4F3C027
:100900000EF4E095E7FBE9C0E92F0FD180F3BA17A9
:10091000620773078407950718F071F49EF527C1E5
:100920000EF4E0950B2EBA2FA02D0B01B90190010A
:100930000C01CA01A0011124FF27591B99F0593F4E
:1009400050F4503E68F11A16F040A22F232F342F96
:100950004427585FF3CF469537952795A795F040E4
:100960005395C9F77EF41F16BA0B620B730B840BF9
:10097000BAF09150A1F0FF0FBB1F661F771F881FB1
:10098000C2F70EC0BA0F621F731F841F48F4879509
:1009900077956795B795F7959E3F08F0B3CF9395F8
:1009A000880F08F09927EE0F97958795089571D0D5
:1009B00008F481E0089504D06894B111D9C0089575
:1009C000BCD088F09F5790F0B92F9927B751A0F06D
:1009D000D1F0660F771F881F991F1AF0BA95C9F7D3
:1009E00012C0B13081F0C3D0B1E00895C0C0672F0C
:1009F000782F8827B85F39F0B93FCCF38695779583
:100A00006795B395D9F73EF490958095709561956B
:100A10007F4F8F4F9F4F0895E89409C097FB3EF496
:100A200090958095709561957F4F8F4F9F4F99233B
:100A3000A9F0F92F96E9BB279395F69587957795B9
:100A40006795B795F111F8CFFAF4BB0F11F460FF79
:100A50001BC06F5F7F4F8F4F9F4F16C0882311F0D1
:100A600096E911C0772321F09EE8872F762F05C0E5
:100A7000662371F096E8862F70E060E02AF09A9580
:100A8000660F771F881FDAF7880F9695879597F975
:100A90000895990F0008550FAA0BE0E8FEEF16160F
:100AA0001706E807F907C0F012161306E407F50762
:100AB00098F0621B730B840B950B39F40A2661F0D6
:100AC000232B242B252B21F408950A2609F4A14079
:100AD000A6958FEF811D811D089597F99F6780E886
:100AE00070E060E008959FEF80EC089500240A9480
:100AF0001616170618060906089500240A941216F9
:100B00001306140605060895092E0394000C11F42B
:100B1000882352F0BB0F40F4BF2B11F460FF04C0D8
:100B20006F5F7F4F8F4F9F4F089557FD9058440F31
:100B3000551F59F05F3F71F04795880F97FB991F3C
:100B400061F09F3F79F087950895121613061406F9
:100B5000551FF2CF4695F1DF08C016161706180686
:100B6000991FF1CF86957105610508940895E89461
:100B7000BB2766277727CB0197F908958ADF08F40A
:100B80008FEF08950BD0C0CFB1DF28F0B6DF18F09B
:100B9000952309F0A2CFA7CF1124EACFC6DFA0F397
:100BA000959FD1F3950F50E0551F629FF001729F02
:100BB000BB27F00DB11D639FAA27F00DB11DAA1F21
:100BC000649F6627B00DA11D661F829F2227B00D6E
:100BD000A11D621F739FB00DA11D621F839FA00DF9
:100BE000611D221F749F3327A00D611D231F849F49
:100BF000600D211D822F762F6A2F11249F575040A0
:100C00008AF0E1F088234AF0EE0FFF1FBB1F661F3A
:100C1000771F881F91505040A9F79E3F510570F0F3
:100C20005CCFA6CF5F3FECF3983EDCF386957795DB
:100C30006795B795F795E7959F5FC1F7FE2B880FEE
:100C4000911D9695879597F908951F920F920FB66B
:100C50000F9211242F933F938F939F93AF93BF9342
:100C600080914B0190914C01A0914D01B0914E01AA
:100C700030914A0123E0230F2D3758F50196A11D2D
:100C8000B11D20934A0180934B0190934C01A09396
:100C90004D01B0934E0180914F0190915001A09170
:100CA0005101B09152010196A11DB11D80934F01D8
:100CB00090935001A0935101B0935201BF91AF9115
:100CC0009F918F913F912F910F900FBE0F901F908A
:100CD000189526E8230F0296A11DB11DD2CF789456
:100CE00084B5826084BD84B5816084BD85B5826031
:100CF00085BD85B5816085BDEEE6F0E080818160CF
:100D00008083E1E8F0E010828081826080838081CE
:100D100081608083E0E8F0E0808181608083E1EBA6
:100D2000F0E0808184608083E0EBF0E0808181608E
:100D30008083EAE7F0E08081846080838081826044
:100D4000808380818160808380818068808310922D
:100D5000C10008958E3008F08E5020911E0190E45D
:100D6000299F900111248770822B80937C008091B1
:100D70007A00806480937A0080917A0086FDFCCFAF
:100D8000809178009091790008951F93CF93DF931D
:100D9000182FEB0161E07DD0209731F460E0812FC6
:100DA000DF91CF911F91B1C0CF3FD10511F461E028
:100DB000F6CFE12FF0E0E859FF4FE491E33031F155
:100DC00040F4E130B1F0E230E1F0C038D1057CF719
:100DD000E5CFE73029F1E83059F1E430B1F78091FF
:100DE0008000806280938000D0938B00C0938A0043
:100DF00004C084B5806884BDC7BDDF91CF911F91C9
:100E0000089584B5806284BDC8BDF7CF809180000D
:100E1000806880938000D0938900C0938800EDCFD4
:100E20008091B00080688093B000C093B300E5CF9C
:100E30008091B00080628093B000C093B400DDCF99
:100E4000833081F028F4813099F08230A9F0089540
:100E50008730A9F08830C9F08430B1F480918000E7
:100E60008F7D03C0809180008F77809380000895EC
:100E700084B58F7784BD089584B58F7DFBCF809135
:100E8000B0008F778093B00008958091B0008F7D7F
:100E9000F9CFCF93DF9390E0FC01E458FF4F24910A
:100EA00080579F4FFC0184918823C9F090E0880F00
:100EB000991FFC01E255FF4FA591B491FC01EC553F
:100EC000FF4FC591D49161110DC09FB7F8948C91DB
:100ED000209582238C938881282328839FBFDF91CC
:100EE000CF910895623051F49FB7F8943C91822FCE
:100EF000809583238C93E8812E2BEFCF8FB7F894C6
:100F0000EC912E2B2C938FBFEACF1F93CF93DF93BF
:100F1000282F30E0F901E859FF4F8491F901E45896
:100F2000FF4FD491F901E057FF4FC491CC23A1F0BA
:100F3000162F811185DFEC2FF0E0EE0FFF1FEC552F
:100F4000FF4FA591B4918FB7F894EC91111108C09F
:100F5000D095DE23DC938FBFDF91CF911F91089551
:100F6000DE2BF8CFFC01918D228D892F90E0805CE3
:100F70009F4F821B91098F7399270895FC01918DD2
:100F8000828D981731F0828DE80FF11D858D90E0EC
:100F900008958FEF9FEF0895FC01918D828D981732
:100FA00061F0A28DAE0FBF2FB11D5D968C91928D19
:100FB0009F5F9F73928F90E008958FEF9FEF08954A
:100FC000FC01538D448D252F30E0842F90E0821B4F
:100FD000930B541710F0CF96089501970895FC01D4
:100FE000A48DA80FB92FB11DA35ABF4F2C91848D8A
:100FF00090E001968F739927848FA689B7892C93E7
:10100000A089B1898C91837080648C93938D848D39
:10101000981306C00288F389E02D80818F7D80833C
:101020000895CF93DF93EC01888D8823B1F0AA89CE
:10103000BB89E889F9898C9185FD03C0808186FD93
:101040000CC00FB607FCF7CF8C9185FFF2CF8081E3
:1010500085FFEDCFCE01C3DFEACFDF91CF910895B9
:10106000EF92FF920F931F93CF93DF93EC0181E0F8
:10107000888F9B8D8C8D98131AC0E889F98980819F
:1010800085FF15C09FB7F894EE89FF896083E889D2
:10109000F98980818370806480839FBF81E090E0C4
:1010A000DF91CF911F910F91FF90EF900895F62E51
:1010B0000B8D10E00F5F1F4F0F731127E02E8C8DEB
:1010C0008E110BC00FB607FCFACFE889F989808131
:1010D00085FFF5CFCE0183DFF2CFEB8DEC0FFD2F37
:1010E000F11DE35AFF4FF0829FB7F8940B8FEA8906
:1010F000FB8980818062D0CFCF92DF92EF92FF9206
:101100001F93CF93DF93EC016A017B01122FE889D3
:10111000F98982E08083C11481EED806E104F104EC
:1011200099F060E079E08DE390E0A7019601F5D0B9
:101130002150310941095109569547953795279511
:10114000211580E1380790F0E889F989108260E87C
:1011500074E88EE190E0A7019601DFD021503109BB
:10116000410951095695479537952795EC85FD8599
:101170003083EE85FF852083188EEC89FD891083EE
:10118000EA89FB89808180618083EA89FB8980818B
:1011900088608083EA89FB89808180688083EA890E
:1011A000FB8980818F7D8083DF91CF911F91FF909C
:1011B000EF90DF90CF9008951F920F920FB60F928D
:1011C00011242F938F939F93EF93FF93E0916301EB
:1011D000F09164018081E0916901F0916A0182FDE2
:1011E0001BC0908180916C018F5F8F7320916D0186
:1011F000821741F0E0916C01F0E0ED5AFE4F958FBF
:1012000080936C01FF91EF919F918F912F910F909F
:101210000FBE0F901F9018958081F4CF1F920F92F0
:101220000FB60F9211242F933F934F935F936F93B9
:101230007F938F939F93AF93BF93EF93FF9383E538
:1012400091E0CDDEFF91EF91BF91AF919F918F9192
:101250007F916F915F914F913F912F910F900FBEB2
:101260000F901F901895E3E5F1E01382128288EE4B
:1012700093E0A0E0B0E084839583A683B78385E202
:1012800091E09183808385EC90E09587848784EC5E
:1012900090E09787868780EC90E0918B808B81EC43
:1012A00090E0938B828B82EC90E0958B848B86EC24
:1012B00090E0978B868B118E128E138E148E08956C
:1012C000AF92BF92CF92DF92EF92FF920F931F9354
:1012D000CF93DF936C017B018B01040F151FEB0192
:1012E0005E01AE18BF08C017D10759F06991D60149
:1012F000ED91FC910190F081E02DC6010995892BBB
:1013000079F7C501DF91CF911F910F91FF90EF9079
:10131000DF90CF90BF90AF900895A1E21A2EAA1B44
:10132000BB1BFD010DC0AA1FBB1FEE1FFF1FA21795
:10133000B307E407F50720F0A21BB30BE40BF50B92
:10134000661F771F881F991F1A9469F7609570951B
:10135000809590959B01AC01BD01CF010895A29F9E
:10136000B001B39FC001A39F700D811D1124911D79
:10137000B29F700D811D1124911D0895EE0FFF1F66
:0C1380000590F491E02D0994F894FFCF43
:10138C00000080BF000048420000203F0AD7233DE8
:10139C000000C84200007F4300000000679C014A27
:1013AC00020000000030086009E0071108B207CC09
:0413BC0007BE070061
:00000001FF
