:100000005CC0000081C000007FC000007DC0000017
:100010007BC0000079C0000077C0000075C0000000
:1000200073C000003EC600006FC000006DC000003D
:100030006BC0000069C0000067C0000065C0000020
:100040000C94AE0861C000000C94650B0C94970BE7
:100050005BC0000059C0000057C0000055C0000040
:1000600053C0000051C00000000000080002010061
:100070000003040700000000000000000102040863
:100080001020408001020408102001020408102002
:10009000040404040404040402020202020203032E
:1000A0000303030300000000250028002B000000CC
:1000B0000000240027002A00BC0B11241FBECFEF34
:1000C000D8E0DEBFCDBF11E0A0E0B1E0EEE9F8E19D
:1000D00002C005900D92A034B107D9F723E0A0E447
:1000E000B1E001C01D92A332B207E1F710E0CDE507
:1000F000D0E004C02197FE010E94470CCC35D10707
:10010000C9F731D60C944D0C7BCF0895CF92DF9276
:10011000EF92FF92CF93882339F16A017B01CFEFF1
:10012000C80F20E030E0A901CB01B601C9D687FF96
:1001300010C0C701B6019058CCD69B01AC016C2F02
:1001400070E090E080E0CF91FF90EF90DF90CF9053
:10015000AEC0C701B601B8D68C2FCF91FF90EF90FB
:10016000DF90CF900C944E09CF91FF90EF90DF90ED
:10017000CF9008950F931F938B019C0183E03695D8
:100180002795179507958A95D1F7005C1E4F462F46
:10019000477021E030E0F90102C0EE0FFF1F4A95E1
:1001A000E2F7AF01F80120812423CB010196211150
:1001B00002C090E080E01F910F9108950F931F936C
:1001C0008B019C0183E036952795179507958A95B5
:1001D000D1F7677081E090E001C0880F6A95EAF777
:1001E000F801E05CFE4F2081452B31F4809582239D
:1001F00080831F910F910895822BFACF2F923F9207
:100200004F925F926F927F928F929F92AF92BF9226
:10021000CF92DF92EF92FF920F931F93CF93DF93D2
:10022000D62EC72E782E692E49015A01280161E089
:100230008D2D0E94D209CD2DDC2D8E010F5F1F4F19
:10024000A8016D2D7C2D872D962DB8DF20E030E0A4
:10025000A901C201B7011BD7181654F4C201B70196
:1002600038D62B01C501B40134D6A201CE0122D06B
:10027000C801DF91CF911F910F91FF90EF90DF9018
:10028000CF90BF90AF909F908F907F906F905F9036
:100290004F903F902F900895882341F08150682F10
:1002A00070E090E080E050E040E088CF0895862F35
:1002B000B901F4C79C01FC01E859FF4FE491E33018
:1002C00061F140F4E13011F1E23021F160E0822F80
:1002D0000C940E0AE730C1F1E83009F441C0E43073
:1002E000A9F7809180008C7F82608093800090913C
:1002F0008100907E9061692B60938100509387000C
:10030000409386008091800080621BC084B5806825
:1003100084BDDCCF84B58062FBCF809180008C7F70
:1003200082608093800090918100907E9061692B23
:1003300060938100509387004093860080918000F5
:10034000806880938000C2CF8091B00080688093E5
:10035000B0008091B100887F682B6093B100B6CF68
:100360008091B0008062F3CFCF93DF93882341F078
:10037000EB01815078D799838883DF91CF910895DD
:10038000FB0111821082F9CF0F931F938B019C0107
:1003900083E036952795179507958A95D1F7075BE2
:1003A0001E4F462F477021E030E0F90102C0EE0FEA
:1003B000FF1F4A95E2F7AF01F80120812423CB010A
:1003C0000196211102C090E080E01F910F910895E5
:1003D0000F931F938B019C0183E03695279517950A
:1003E00007958A95D1F7677081E090E001C0880F8A
:1003F0006A95EAF7F801E75BFE4F2081452B31F45F
:100400008095822380831F910F910895822BFACFCC
:10041000CF92DF92EF92FF92CF93DF936B017C013B
:1004200060E08EE0C816D104E104F10488F48EE0A7
:100430008C0DB8D7E6012196AE01C701B601C8DF21
:10044000CE01DF91CF91FF90EF90DF90CF90089594
:100450008C2DEFCF882341F08150682F70E090E021
:1004600080E050E040E0B4CF0895E091DF02F091E9
:10047000E0028091FC019091FD01A091FE01B091FC
:10048000FF0180839183A283B38308952F923F92CB
:100490004F925F926F927F928F929F92AF92BF9294
:1004A000CF92DF92EF92FF920F931F93CF93DF9340
:1004B000CDB7DEB762970FB6F894DEBF0FBECDBFE3
:1004C00080911003909111038130910509F07AC257
:1004D00060910403709105038091060390910703D6
:1004E0006F5F7F4F8F4F9F4F20D520910803309132
:1004F000090340910A0350910B03CDD56093680224
:100500007093690280936A0290936B02C09000011D
:10051000D0900101E0900201F0900301A701960143
:100520006091160270911702809118029091190241
:10053000C7D4882341F0C0921602D0921702E092ED
:100540001802F09219026EE070E080E090E01CDF8B
:10055000909315028093140243E050E0BE016F5F58
:100560007F4F02DF2091240130912501A981BA81BA
:100570000E94380CDAD420E030E040E059E38BD51B
:10058000209108013091090140910A0150910B011D
:1005900032D420910C0130910D0140910E01509107
:1005A0000F0179D59B01AC016091040170910501A7
:1005B00080910601909107011ED46093FC01709315
:1005C000FD018093FE019093FF0160910A027091FA
:1005D0000B0280910C0290910D02CCDD6C01909386
:1005E0000902809308022091FC013091FD014091A5
:1005F000FE015091FF0160911001709111018091F5
:1006000012019091130147D54B015C0120911D030C
:1006100030911E0340911F035091200360911801F7
:100620007091190180911A0190911B0134D59B01A1
:10063000AC01C501B401E0D34B015C01E0901C01A9
:10064000F0901D0100911E0110911F019B01AC0152
:10065000B701C80135D487FD11C0E0902001F090AA
:10066000210100912201109123019401A501B701FC
:10067000C8010DD5181614F07401850120E030E092
:100680004FE753E4B701C8011BD487FFB2C120E094
:1006900030E0A901B701C801FAD4181624F0E12C02
:1006A000F12C00E010E0A701B801C6012FDD809118
:1006B0001003909111039E878D87019709F069C1FE
:1006C000E0919802F09199020190F081E02D408034
:1006D0005180628073808091680290916902A0913C
:1006E0006A02B0916B028F87988BA98BBA8BE091CD
:1006F0006C02F0916D02C080D180E280F380E091C5
:100700009C02F0919D0200811181E0916002F091C4
:100710006102A081B181B887AF8322803380848158
:1007200095819A878987A681B781BC87AB87E0913D
:100730005E02F0915F021182108284E0F801AF81C5
:10074000B88501900D928A95E1F7E0919602F091BB
:1007500097023182208289DE20E030E040E05FE3D2
:10076000C701B60198D44B015C01F10120813181B0
:100770004281538190D4AF81B8852D913D914D91A7
:100780005C913AD3F8016083718382839383E09113
:100790009802F0919902808191819C838B83A501BD
:1007A0009401C301B20128D3AB81BC816D937D93C9
:1007B0008D939C931397E0919602F091970289850F
:1007C0009A859183808362DE50DE20E030E040E451
:1007D0005FE3C701B6015FD44B015C0120E030E06C
:1007E000A901C701B60157D4D1012D913D914D9179
:1007F0005C9151D46B837C838D839E83E985FA85DC
:100800002081318142815381C501B40144D49B01CF
:10081000AC016B817C818D819E81EED2AF81B885E8
:100820002D913D914D915C91E7D2F80160837183E8
:1008300082839383E0919802F09199028081918163
:100840009C838B83A5019401C301B201D5D2AB81F6
:10085000BC816D937D938D939C931397E091960249
:10086000F09197028B859C85918380830FDEFDDD5F
:1008700029E33EE843E65EE3C701B6010CD4D101AB
:100880002D913D914D915C9106D44B015C012BEA79
:100890003AEA4AEA5EE3C701B601FDD3E985FA8583
:1008A0002081318142815381F6D39B01AC01C50186
:1008B000B401A2D24B015C0129E33EE843EE5EE3C2
:1008C000C701B601E8D3AB85BC852D913D914D9113
:1008D0005C91E1D39B01AC01C501B4018DD2EF81E4
:1008E000F885208131814281538186D2D8016D9370
:1008F0007D938D939C931397E0919802F0919902C8
:100900000190F081E02D8F859889A989BA8980832B
:100910009183A283B383E0915E02F0915F02AD8583
:10092000BE85B183A0838091040390910503A091BB
:100930000603B09107030196A11DB11D8093040326
:1009400090930503A0930603B09307038091680278
:1009500090916902A0916A02B0916B02E091130339
:10096000F091140380839183A283B38380910C035D
:1009700090910D03A0910E03B0910F030196A11D5C
:10098000B11D80930C0390930D03A0930E03B093BD
:100990000F0362960FB6F894DEBF0FBECDBFDF9196
:1009A000CF911F910F91FF90EF90DF90CF90BF906C
:1009B000AF909F908F907F906F905F904F903F90FF
:1009C0002F900895892B09F0A1CDE0919802F09124
:1009D00099020190F081E02D80819181A281B38103
:1009E000E0911303F091140380839183A283B38376
:1009F0008DCDE12CF12C0FE713E455CE8F929F9211
:100A0000AF92BF92DF92EF92FF920F931F93CF931B
:100A1000DF93EAE5F2E080E193E095838483C3E12C
:100A2000D3E0D7AFC6AF08E013E0138B028B2FEDF6
:100A300032E035AF24AF29ED32E030939D022093B0
:100A40009C024EEF52E050939B0240939A0240E08A
:100A500053E050939F0240939E024BED52E050931F
:100A6000A1024093A0024DED52E05093A3024093A7
:100A7000A202F093C302E093C202F383E28341E057
:100A800050E0DC014D935C9386EF92E046EE52E03D
:100A9000DC014D935C934AEE52E05093F90240938F
:100AA000F8024EEE52E05093FB024093FA0242EFFE
:100AB00052E05093FD024093FC024DE153E0D90116
:100AC0004D935C939783868387E291E0918780873B
:100AD00085E193E0998388834DEC5CEC6CE47EE3E4
:100AE000F8014083518362837383E0E0F1E08489FD
:100AF0009589A689B78980931D0390931E03A093BF
:100B00001F03B0932003C0E0D2E01E868081918154
:100B1000A281B3818E8B9F8BA88FB98F1B8A812C6A
:100B2000912C540183948F86988AA98ABA8A6EE0A0
:100B300070E080E090E06CDC9D8B8C8BDD24D394A6
:100B4000DB8A188222E32AA793E39BA784E38CA77E
:100B500085E38DA786E38EA787E38FA788E388AB1D
:100B600089E389AB81E38AAB30E33BAB8CAB8DABE4
:100B70008EAB2FAB88AF99AF8AE292E09F838E83D2
:100B800089E090E0A0E0B0E08A879B87AC87BD87D2
:100B90001D8289829A82AB82BC82E12CF12C870172
:100BA000A801970169E070E080E090E027DB998779
:100BB00088876A857B858C859D85DCDA998788871F
:100BC000A4DADD82DF91CF911F910F91FF90EF901A
:100BD000DF90BF90AF909F908F90089580910E020C
:100BE00081111DC081E080930E0280910F029091CF
:100BF0001002A0911102B09112020197A105B10556
:100C000071F480911302882351F06EE070E080E06F
:100C100090E0BADB90931502809314021BDC809164
:100C20000002811132C081E08093000280910102B4
:100C300090910202A0910302B09104020197A105D4
:100C4000B10519F5809105028823F9F060910A0237
:100C500070910B0280910C0290910D028BDA9093AF
:100C600009028093080240E050E0BA014FDA609137
:100C70000A0270910B0280910C0290910D027ADAB7
:100C8000909309028093080207CB089540E855E24B
:100C900060E070E090E080E000C026E08FE591E049
:100CA000B4C41F920F920FB60F9211242F933F934B
:100CB0004F935F936F937F938F939F93AF93BF9364
:100CC000EF93FF9383E88093B200809152018F5F8E
:100CD00080935201893119F4109252012CD0FF9166
:100CE000EF91BF91AF919F918F917F916F915F91A4
:100CF0004F913F912F910F900FBE0F901F9018951D
:100D000083E88093B200E0E7F0E080818E7F80830B
:100D1000A0EBB0E08C918C7F8C93A1EBB0E08C9138
:100D2000877F8C938C9187608C9380818160808396
:100D3000089581E008958091530191E0980F909378
:100D40005301882349F021E030E03093550120938E
:100D50005401809353010895789498DBF89480911E
:100D600053018150F6CF0F931F93CF93DF931092CF
:100D70002203109221033CD289DFC0912C01D09133
:100D80002D01198218823ADEBBDF88819981892B77
:100D900031F481E0FE01E854FF4F9081911180E031
:100DA00080932103789478948E0108541F4F80918A
:100DB0002103811109C012DFF89490E080E0DF91F7
:100DC000CF911F910F91089588819981892B89F482
:100DD00081E0F8019081911101C080E080932203AD
:100DE0009091220381E0911180E080932103A1DFA3
:100DF000DECF81E0F3CF5058BB27AA270ED00DC11C
:100E0000FED030F003D120F031F49F3F11F41EF4F6
:100E1000F3C00EF4E095E7FBE9C0E92F0FD180F3B2
:100E2000BA17620773078407950718F071F49EF5E7
:100E300027C10EF4E0950B2EBA2FA02D0B01B9019E
:100E400090010C01CA01A0011124FF27591B99F040
:100E5000593F50F4503E68F11A16F040A22F232F4C
:100E6000342F4427585FF3CF469537952795A7959C
:100E7000F0405395C9F77EF41F16BA0B620B730B43
:100E8000840BBAF09150A1F0FF0FBB1F661F771FB4
:100E9000881FC2F70EC0BA0F621F731F841F48F469
:100EA000879577956795B795F7959E3F08F0B3CFEF
:100EB0009395880F08F09927EE0F979587950895D9
:100EC00071D008F481E0089504D06894B111D9C0BC
:100ED0000895BCD088F09F5790F0B92F9927B7514B
:100EE000A0F0D1F0660F771F881F991F1AF0BA95EE
:100EF000C9F712C0B13081F0C3D0B1E00895C0C0CD
:100F0000672F782F8827B85F39F0B93FCCF38695E3
:100F100077956795B395D9F73EF490958095709540
:100F200061957F4F8F4F9F4F0895E89409C097FBBD
:100F30003EF490958095709561957F4F8F4F9F4FB0
:100F40009923A9F0F92F96E9BB279395F6958795F4
:100F500077956795B795F111F8CFFAF4BB0F11F4B7
:100F600060FF1BC06F5F7F4F8F4F9F4F16C088235E
:100F700011F096E911C0772321F09EE8872F762F94
:100F800005C0662371F096E8862F70E060E02AF0D5
:100F90009A95660F771F881FDAF7880F96958795C1
:100FA00097F90895990F0008550FAA0BE0E8FEEF96
:100FB00016161706E807F907C0F012161306E4071D
:100FC000F50798F0621B730B840B950B39F40A2616
:100FD00061F0232B242B252B21F408950A2609F4F4
:100FE000A140A6958FEF811D811D089597F99F67F8
:100FF00080E870E060E008959FEF80EC08950024A1
:101000000A941616170618060906089500240A946D
:1010100012161306140605060895092E0394000CF3
:1010200011F4882352F0BB0F40F4BF2B11F460FF82
:1010300004C06F5F7F4F8F4F9F4F089557FD9058AB
:10104000440F551F59F05F3F71F04795880F97FB8C
:10105000991F61F09F3F79F0879508951216130646
:101060001406551FF2CF4695F1DF08C01616170675
:101070001806991FF1CF86957105610508940895AA
:10108000E894BB2766277727CB0197F908958ADF75
:1010900008F48FEF08950BD0C0CFB1DF28F0B6DF92
:1010A00018F0952309F0A2CFA7CF1124EACFC6DF0D
:1010B000A0F3959FD1F3950F50E0551F629FF0016B
:1010C000729FBB27F00DB11D639FAA27F00DB11DC4
:1010D000AA1F649F6627B00DA11D661F829F22274D
:1010E000B00DA11D621F739FB00DA11D621F839FD4
:1010F000A00D611D221F749F3327A00D611D231FAA
:10110000849F600D211D822F762F6A2F11249F57F7
:1011100050408AF0E1F088234AF0EE0FFF1FBB1F1A
:10112000661F771F881F91505040A9F79E3F5105B9
:1011300070F05CCFA6CF5F3FECF3983EDCF3869572
:1011400077956795B795F795E7959F5FC1F7FE2B64
:10115000880F911D9695879597F908951F920F9284
:101160000FB60F9211242F933F938F939F93AF93BA
:10117000BF938091570190915801A0915901B0916E
:101180005A013091560123E0230F2D3758F501966F
:10119000A11DB11D209356018093570190935801D2
:1011A000A0935901B0935A0180915B0190915C0129
:1011B000A0915D01B0915E010196A11DB11D8093CA
:1011C0005B0190935C01A0935D01B0935E01BF91C0
:1011D000AF919F918F913F912F910F900FBE0F90E4
:1011E0001F90189526E8230F0296A11DB11DD2CF9E
:1011F000789484B5826084BD84B5816084BD85B5F2
:10120000826085BD85B5816085BDEEE6F0E08081B8
:1012100081608083E1E8F0E01082808182608083D9
:10122000808181608083E0E8F0E08081816080835C
:10123000E1EBF0E0808184608083E0EBF0E080818E
:1012400081608083EAE7F0E0808184608083808130
:1012500082608083808181608083808180688083D8
:101260001092C10008958E3008F08E502091260112
:1012700090E4299F900111248770822B80937C0039
:1012800080917A00806480937A0080917A0086FD54
:10129000FCCF809178009091790008951F93CF93AF
:1012A000DF93182FEB0161E07DD0209731F460E0EF
:1012B000812FDF91CF911F91B1C0CF3FD10511F4A4
:1012C00061E0F6CFE12FF0E0E859FF4FE491E33021
:1012D00031F140F4E130B1F0E230E1F0C038D10555
:1012E0007CF7E5CFE73029F1E83059F1E430B1F788
:1012F00080918000806280938000D0938B00C093A7
:101300008A0004C084B5806884BDC7BDDF91CF91D9
:101310001F91089584B5806284BDC8BDF7CF8091C8
:101320008000806880938000D0938900C0938800FB
:10133000EDCF8091B00080688093B000C093B3007F
:10134000E5CF8091B00080628093B000C093B4007C
:10135000DDCF833081F028F4813099F08230A9F01C
:1013600008958730A9F08830C9F08430B1F48091B5
:1013700080008F7D03C0809180008F7780938000F4
:10138000089584B58F7784BD089584B58F7DFBCF94
:101390008091B0008F778093B00008958091B00065
:1013A0008F7DF9CFCF93DF9390E0FC01E458FF4F9E
:1013B000249180579F4FFC0184918823C9F090E0CD
:1013C000880F991FFC01E255FF4FA591B491FC01D4
:1013D000EC55FF4FC591D49161110DC09FB7F894A2
:1013E0008C91209582238C938881282328839FBF0A
:1013F000DF91CF910895623051F49FB7F8943C91FA
:10140000822F809583238C93E8812E2BEFCF8FB78B
:10141000F894EC912E2B2C938FBFEACF1F93CF9390
:10142000DF93282F30E0F901E859FF4F8491F9014B
:10143000E458FF4FD491F901E057FF4FC491CC23FA
:10144000A1F0162F811185DFEC2FF0E0EE0FFF1FCA
:10145000EC55FF4FA591B4918FB7F894EC91111111
:1014600008C0D095DE23DC938FBFDF91CF911F9111
:101470000895DE2BF8CFFC01918D228D892F90E00D
:10148000805C9F4F821B91098F7399270895FC01FF
:10149000918D828D981731F0828DE80FF11D858D29
:1014A00090E008958FEF9FEF0895FC01918D828D5C
:1014B000981761F0A28DAE0FBF2FB11D5D968C9174
:1014C000928D9F5F9F73928F90E008958FEF9FEFB3
:1014D0000895FC01538D448D252F30E0842F90E03A
:1014E000821B930B541710F0CF960895019708951F
:1014F000FC01A48DA80FB92FB11DA35ABF4F2C9189
:10150000848D90E001968F739927848FA689B7897F
:101510002C93A089B1898C91837080648C93938D76
:10152000848D981306C00288F389E02D80818F7D19
:1015300080830895CF93DF93EC01888D8823B1F0E9
:10154000AA89BB89E889F9898C9185FD03C08081CE
:1015500086FD0CC00FB607FCF7CF8C9185FFF2CF4C
:10156000808185FFEDCFCE01C3DFEACFDF91CF9140
:101570000895EF92FF920F931F93CF93DF93EC01A7
:1015800081E0888F9B8D8C8D98131AC0E889F9892A
:10159000808185FF15C09FB7F894EE89FF8960832D
:1015A000E889F98980818370806480839FBF81E0AE
:1015B00090E0DF91CF911F910F91FF90EF900895F0
:1015C000F62E0B8D10E00F5F1F4F0F731127E02ECB
:1015D0008C8D8E110BC00FB607FCFACFE889F98904
:1015E000808185FFF5CFCE0183DFF2CFEB8DEC0F4D
:1015F000FD2FF11DE35AFF4FF0829FB7F8940B8F38
:10160000EA89FB8980818062D0CFCF92DF92EF920E
:10161000FF921F93CF93DF93EC016A017B01122F9E
:10162000E889F98982E08083C11481EED806E1045B
:10163000F10499F060E079E08DE390E0A701960174
:10164000F5D02150310941095109569547953795F3
:101650002795211580E1380790F0E889F9891082F3
:1016600060E874E88EE190E0A7019601DFD0215098
:101670003109410951095695479537952795EC85CC
:10168000FD853083EE85FF852083188EEC89FD89EA
:101690001083EA89FB89808180618083EA89FB89E4
:1016A000808188608083EA89FB898081806880836B
:1016B000EA89FB8980818F7D8083DF91CF911F91A3
:1016C000FF90EF90DF90CF9008951F920F920FB68A
:1016D0000F9211242F938F939F93EF93FF93E09199
:1016E0006F01F09170018081E0917501F0917601B8
:1016F00082FD1BC09081809178018F5F8F73209154
:101700007901821741F0E0917801F0E0E15AFE4F53
:10171000958F80937801FF91EF919F918F912F91F9
:101720000F900FBE0F901F9018958081F4CF1F92DD
:101730000F920FB60F9211242F933F934F935F9305
:101740006F937F938F939F93AF93BF93EF93FF9389
:101750008FE591E0CDDEFF91EF91BF91AF919F9129
:101760008F917F916F915F914F913F912F910F904A
:101770000FBE0F901F901895EFE5F1E013821282D3
:1017800088EE93E0A0E0B0E084839583A683B783DE
:1017900082E391E09183808385EC90E09587848754
:1017A00084EC90E09787868780EC90E0918B808B2B
:1017B00081EC90E0938B828B82EC90E0958B848B14
:1017C00086EC90E0978B868B118E128E138E148E82
:1017D0000895AF92BF92CF92DF92EF92FF920F9354
:1017E0001F93CF93DF936C017B018B01040F151FB7
:1017F000EB015E01AE18BF08C017D10759F069911F
:10180000D601ED91FC910190F081E02DC601099582
:10181000892B79F7C501DF91CF911F910F91FF902F
:10182000EF90DF90CF90BF90AF900895A1E21A2E75
:10183000AA1BBB1BFD010DC0AA1FBB1FEE1FFF1F74
:10184000A217B307E407F50720F0A21BB30BE40BC4
:10185000F50B661F771F881F991F1A9469F760950B
:101860007095809590959B01AC01BD01CF010895C5
:10187000A29FB001B39FC001A39F700D811D1124D1
:10188000911DB29F700D811D1124911D0895EE0FC1
:0E189000FF1F0590F491E02D0994F894FFCF0E
:10189E00000080BF000048420000203F0AD7233DD1
:1018AE000000C842000000000000004000007F431E
:1018BE0000000000679C016F646533005A0200004F
:1018CE000000B90AE90B690A9A0A3B0A550A470A47
:00000001FF
