:100000005CC0000081C000007FC000007DC0000017
:100010007BC0000079C0000077C0000075C0000000
:1000200073C0000097C700006FC000006DC00000E3
:100030006BC0000069C0000067C0000065C0000020
:100040000C946F0A61C000000C94260D0C94580D9E
:100050005BC0000059C0000057C0000055C0000040
:1000600053C0000051C00000000000080002010061
:100070000003040700000000000000000102040863
:100080001020408001020408102001020408102002
:10009000040404040404040402020202020203032E
:1000A0000303030300000000250028002B000000CC
:1000B0000000240027002A007D0D11241FBECFEF71
:1000C000D8E0DEBFCDBF11E0A0E0B1E0E0E2FCE1AE
:1000D00002C005900D92A434B107D9F723E0A4E43F
:1000E000B1E001C01D92AF34B207E1F710E0CDE5F9
:1000F000D0E004C02197FE010E94080ECC35D10744
:10010000C9F78AD70C940E0E7BCF0895CF92DF9259
:10011000EF92FF92CF93882351F16A017B01CFEFD9
:10012000C80F20E030E0A901CB01B6010E94B90858
:1001300087FF11C0C701B60190580E942A099B0190
:10014000AC016C2F70E090E080E0CF91FF90EF90D9
:10015000DF90CF90B0C0C701B6010E9425098C2F57
:10016000CF91FF90EF90DF90CF900C940F0BCF9139
:10017000FF90EF90DF90CF9008950F931F938B0126
:100180009C0183E036952795179507958A95D1F7B9
:100190000C5B1E4F462F477021E030E0F90102C092
:1001A000EE0FFF1F4A95E2F7AF01F80120812423EB
:1001B000CB010196211102C090E080E01F910F91C8
:1001C00008950F931F938B019C0183E0369527952B
:1001D000179507958A95D1F7677081E090E001C087
:1001E000880F6A95EAF7F801EC5BFE4F2081452BFA
:1001F00031F48095822380831F910F910895822B83
:10020000FACF2F923F924F925F926F927F928F928E
:100210009F92AF92BF92CF92DF92EF92FF920F9395
:100220001F93CF93DF93D62EC72E782E692E4901C8
:100230005A01280161E08D2D0E94930BCD2DDC2DFC
:100240008E010F5F1F4FA8016D2D7C2D872D962DE0
:10025000B8DF20E030E0A901C201B7010E94080A1E
:10026000181654F4C201B701F5D72B01C501B4012A
:10027000F1D7A201CE0123D0C801DF91CF911F9108
:100280000F91FF90EF90DF90CF90BF90AF909F9035
:100290008F907F906F905F904F903F902F90089538
:1002A000882341F08150682F70E090E080E050E0BA
:1002B00040E087CF0895862FB9010C940F0B9C0165
:1002C000FC01E859FF4FE491E33061F140F4E13083
:1002D00011F1E23021F160E0822F0C94CF0BE73076
:1002E000C1F1E83009F441C0E430A9F78091800001
:1002F0008C7F82608093800090918100907E9061DD
:10030000692B609381005093870040938600809111
:10031000800080621BC084B5806884BDDCCF84B55A
:100320008062FBCF809180008C7F82608093800010
:1003300090918100907E9061692B60938100509331
:1003400087004093860080918000806880938000C1
:10035000C2CF8091B00080688093B0008091B100DE
:10036000887F682B6093B100B6CF8091B000806227
:10037000F3CFCF93DF93882349F0EB0181500E94A4
:10038000F40A99838883DF91CF910895FB0111824C
:100390001082F9CF0F931F938B019C0183E0369558
:1003A0002795179507958A95D1F7035B1E4F462F22
:1003B000477021E030E0F90102C0EE0FFF1F4A95BF
:1003C000E2F7AF01F80120812423CB01019621112E
:1003D00002C090E080E01F910F9108950F931F934A
:1003E0008B019C0183E036952795179507958A9593
:1003F000D1F7677081E090E001C0880F6A95EAF755
:10040000F801E35BFE4F2081452B31F48095822378
:1004100080831F910F910895822BFACFCF92DF92A4
:10042000EF92FF92CF93DF936B017C0160E08EE04F
:10043000C816D104E104F10490F48EE08C0D0E9402
:10044000930BE6012196AE01C701B601C7DFCE01CD
:10045000DF91CF91FF90EF90DF90CF9008958C2D9A
:10046000EECF882341F08150682F70E090E080E06B
:1004700050E040E0B3CF0895E0918502F09186020C
:100480008091310390913203A0913303B0913403F2
:1004900080839183A283B38308952F923F924F92DA
:1004A0005F926F927F928F929F92AF92BF92CF9204
:1004B000DF92EF92FF920F931F93CF93DF93CDB70D
:1004C000DEB762970FB6F894DEBF0FBECDBF809146
:1004D000B6029091B7028130910509F021C3609175
:1004E000AA027091AB028091AC029091AD026F5F55
:1004F0007F4F8F4F9F4FDAD62091AE023091AF02DF
:100500004091B0025091B10287D760930E02709370
:100510000F028093100290931102C0900001D090BE
:100520000101E0900201F0900301A70196016091A2
:10053000DD027091DE028091DF029091E00219D617
:10054000882341F0C092DD02D092DE02E092DF0209
:10055000F092E0026EE070E080E090E01BDF9093AC
:10056000DC028093DB0243E050E0BE016F5F7F4F0F
:1005700000DF2091280130912901A981BA810E94D0
:10058000F90D94D620E030E040E059E345D72091C2
:1005900008013091090140910A0150910B0184D565
:1005A00020910C0130910D0140910E0150910F01ED
:1005B00033D79B01AC0160910401709105018091DA
:1005C00006019091070170D56B837C838D839E8398
:1005D0006093310370933203809333039093340319
:1005E000E091B902F091BA02C080D180E280F3803C
:1005F0008090210390902203A0902303B0902403C5
:10060000A7019601B401C50103D787FD0DC0A7015D
:1006100096016091290370912A0380912B03909198
:100620002C03F6D687FFA1C21091290300912A035B
:1006300030902B0320902C03212F302F432D522D4F
:10064000B401C50196D5A701960187FF80C2612F2D
:10065000702F832D922D8DD587FD7EC2409025036E
:10066000509026036090270370902803182D092DC1
:100670003A2C2B2C212F302F432D522DC701B601A0
:1006800013D56B017C01A30192016B817C818D816B
:100690009E810AD5A701960170D54B015C0160913E
:1006A000D1027091D2028091D3029091D40265DD83
:1006B0006C019093D0028093CF022091310330914E
:1006C00032034091330350913403609110017091D3
:1006D000110180911201909113019ED62B013C01D2
:1006E000209114013091150140911601509117018C
:1006F000C501B40191D69B01AC01C301B201D5D4AF
:100700004B015C012091C3023091C4024091C502AB
:100710005091C60260911C0170911D0180911E01D3
:1007200090911F0179D6A5019401BFD44B015C01C2
:10073000E0902001F090210100912201109123010D
:100740009B01AC01B701C80114D587FD11C0E09031
:100750002401F090250100912601109127019401B8
:10076000A501B701C80154D6181614F0740185010B
:1007700020E030E04FE753E4B701C801FAD487FF27
:10078000F8C120E030E0A901B701C80141D6181630
:100790000CF0F4C1A701B801C601B8DC8091B60223
:1007A0009091B702019709F0A2C180912103909125
:1007B0002203A0912303B09124038B839C83AD83F8
:1007C000BE8340903D0350903E0360903F03709085
:1007D0004003E091B902F091BA02C080D180E2807A
:1007E000F380A3019201BC01CD01C3D48111CBC11F
:1007F000C0922103D0922203E0922303F0922403BB
:10080000E5E2F3E08091310390913203A09133034C
:10081000B091340380839183A283B383E0913E023D
:10082000F0913F020190F081E02D40805180628084
:10083000738080910E0290910F02A0911002B091EE
:1008400011028F87988BA98BBA8BE0911202F091DD
:100850001302C080D180E280F380E0914202F091E7
:10086000430200811181E0910602F0910702A0810C
:10087000B181BC83AB8322803380848195819C8746
:100880008B87A681B781BE87AD87E0910402F09186
:1008900005021182108284E0F801AB81BC810190D5
:1008A0000D928A95E1F7E0913C02F0913D02318290
:1008B0002082E2DD20E030E040E05FE3C701B601E6
:1008C000ABD54B015C01F101208131814281538123
:1008D000A3D5AB81BC812D913D914D915C91E5D328
:1008E000F8016083718382839383E0913E02F091EB
:1008F0003F028081918198878F83A5019401C30174
:10090000B201D3D3AF81B8856D937D938D939C93C2
:100910001397E0913C02F0913D028B859C85918379
:100920008083BBDDA9DD20E030E040E45FE3C70168
:10093000B60172D54B015C0120E030E0A901C7018E
:10094000B6016AD5D1012D913D914D915C9164D54F
:100950006F83788789879A87EB85FC852081318131
:1009600042815381C501B40157D59B01AC016F8110
:10097000788589859A8599D3AB81BC812D913D91EC
:100980004D915C9192D3F80160837183828393834C
:10099000E0913E02F0913F028081918198878F83A0
:1009A000A5019401C301B20180D3AF81B8856D93D5
:1009B0007D938D939C931397E0913C02F0913D02BF
:1009C0008D859E859183808368DD56DD29E33EE831
:1009D00043E65EE3C701B6011FD5D1012D913D91DC
:1009E0004D915C9119D54B015C012BEA3AEA4AEA38
:1009F0005EE3C701B60110D5EB85FC85208131810E
:100A00004281538109D59B01AC01C501B4014DD38D
:100A10004B015C0129E33EE843EE5EE3C701B6010A
:100A2000FBD4AD85BE852D913D914D915C91F4D463
:100A30009B01AC01C501B40138D3EB81FC8120815D
:100A400031814281538131D3D8016D937D938D9350
:100A50009C931397E0913E02F0913F020190F08148
:100A6000E02D8F859889A989BA8980839183A28393
:100A7000B383E0910402F091050281E090E091835C
:100A800080838091AA029091AB02A091AC02B091B8
:100A9000AD020196A11DB11D8093AA029093AB02F5
:100AA000A093AC02B093AD0280910E0290910F0220
:100AB000A0911002B0911102E091B902F091BA0236
:100AC00080839183A283B3838091B2029091B30219
:100AD000A091B402B091B5020196A11DB11D809301
:100AE000B2029093B302A093B402B093B50262969F
:100AF0000FB6F894DEBF0FBECDBFDF91CF911F912F
:100B00000F91FF90EF90DF90CF90BF90AF909F90AC
:100B10008F907F906F905F904F903F902F900895AF
:100B2000892B09F0FACCE0913E02F0913F0201904E
:100B3000F081E02D80819181A281B381E091B902A1
:100B4000F091BA0280839183A283B383E6CCB4018F
:100B5000C5015ED487FD82CD40902D0350902E03B9
:100B600060902F037090300385CD812C912C54011F
:100B700096CDE12CF12C0FE713E40CCEE12CF12CF7
:100B800000E010E007CE8090290390902A03A09007
:100B90002B03B0902C03A5019401C301B201E9D24B
:100BA00081110BC0C0922903D0922A03E0922B033B
:100BB000F0922C03EDE2F3E025CEA50194016B81C8
:100BC0007C818D819E81D5D287FFECCF11CE8F9213
:100BD0009F92AF92BF92DF92EF92FF920F931F937B
:100BE000CF93DF9384E090E073D1E0E0F2E086EB16
:100BF00092E095838483C9EBD2E0D7AFC6AF0EEA0B
:100C000012E0138B028B25E832E035AF24AF2FE7DB
:100C100032E0309343022093420244EA52E0509380
:100C200041024093400246EA52E05093450240930D
:100C3000440241E852E0509347024093460243E8A1
:100C400052E05093490240934802F0936902E093C6
:100C50006802F383E28341E050E0DC014D935C9352
:100C60008CE992E04CE852E0DC014D935C9340E962
:100C700052E050939F0240939E0244E952E0509309
:100C8000A1024093A00248E952E05093A30240938E
:100C9000A20243EC52E0D9014D935C939783868383
:100CA0008BE291E0918780878BEB92E09983888338
:100CB0004DEC5CEC6CE47EE3F8014083518362838D
:100CC000738380913D0390913E03A0913F03B091C7
:100CD0004003C7ECD2E08093210390932203A093BA
:100CE0002303B09324038093290390932A03A093B2
:100CF0002B03B0932C03E0E0F1E0808D918DA28D69
:100D0000B38D8093C3029093C402A093C502B093A5
:100D1000C6021E8680819181A281B3818E8B9F8BBA
:100D2000A88FB98F1B8A812C912C540183948F86B4
:100D3000988AA98ABA8A6EE070E080E090E06EDB63
:100D40009D8B8C8BDD24D394DB8A188222E32AA727
:100D500093E39BA784E38CA785E38DA786E38EA707
:100D600087E38FA788E388AB89E389AB81E38AAB0C
:100D700030E33BAB8CAB8DAB8EAB2FAB88AF99AF79
:100D800081EF92E09F838E8389E090E0A0E0B0E065
:100D90008A879B87AC87BD871D8289829A82AB82B6
:100DA000BC82E12CF12C8701A801970169E070E079
:100DB00080E090E026DA998788876A857B858C8534
:100DC0009D85DBD999878887A0D9DD82DF91CF9176
:100DD0001F910F91FF90EF90DF90BF90AF909F9089
:100DE0008F9008958091D50281111DC081E080937C
:100DF000D5028091D6029091D702A091D802B091ED
:100E0000D9020197A105B10571F48091DA02882316
:100E100051F06EE070E080E090E0BCDA9093DC028C
:100E20008093DB021EDB8091C702811132C081E01A
:100E30008093C7028091C8029091C902A091CA0212
:100E4000B091CB020197A105B10519F58091CC02B3
:100E50008823F9F06091D1027091D2028091D3027F
:100E60009091D4028AD99093D0028093CF0240E02F
:100E700050E0BA014BD96091D1027091D2028091B9
:100E8000D3029091D40279D99093D0028093CF026B
:100E900007CA089560E070E080E89FE7089560E089
:100EA00070E080E89FE7089560E070E080E89FEFE1
:100EB000089560E070E080E89FEF089560E070E0E2
:100EC00080EC9FEF089560E070E080EC9FEF089564
:100ED000F5DF609341037093420380934303909343
:100EE0004403F1DF60933503709336038093370337
:100EF00090933803CFDF60933D0370933E0380935C
:100F00003F0390934003CBDF6093390370933A0320
:100F100080933B0390933C03C7DF6093450370933A
:100F200046038093470390934803C3DF60934903CC
:100F300070934A0380934B0390934C03089540E8C9
:100F400055E260E070E090E080E000C026E083E6DB
:100F500091E01CC51F920F920FB60F9211242F9390
:100F60003F934F935F936F937F938F939F93AF9331
:100F7000BF93EF93FF9383E88093B2008091560173
:100F80008F5F80935601893119F4109256012CD04D
:100F9000FF91EF91BF91AF919F918F917F916F9151
:100FA0005F914F913F912F910F900FBE0F901F9027
:100FB000189583E88093B200E0E7F0E080818E7FAF
:100FC0008083A0EBB0E08C918C7F8C93A1EBB0E0A0
:100FD0008C91877F8C938C9187608C9380818160CA
:100FE0008083089581E008958091570191E0980FE2
:100FF00090935701882349F021E030E03093590164
:1010000020935801809357010895789446DAF89414
:10101000809157018150F6CF0F931F93CF93DF93A9
:1010200010924E0310924D03A4D289DFC09130017B
:10103000D091310119821882CADDBBDF8881998184
:10104000892B31F481E0FE01E854FF4F908191112A
:1010500080E080934D03789478948E0108541F4F5C
:1010600080914D03811109C0BDDEF89490E080E0CD
:10107000DF91CF911F910F91089588819981892BDC
:1010800089F481E0F8019081911101C080E08093A2
:101090004E0390914E0381E0911180E080934D03C7
:1010A000A1DFDECF81E0F3CF5058BB27AA270ED0B7
:1010B00075C166D130F06BD120F031F49F3F11F44F
:1010C0001EF45BC10EF4E095E7FB51C1E92F77D127
:1010D00080F3BA17620773078407950718F071F455
:1010E0009EF58FC10EF4E0950B2EBA2FA02D0B01AB
:1010F000B90190010C01CA01A0011124FF27591B5D
:1011000099F0593F50F4503E68F11A16F040A22F62
:10111000232F342F4427585FF3CF469537952795D3
:10112000A795F0405395C9F77EF41F16BA0B620BD2
:10113000730B840BBAF09150A1F0FF0FBB1F661F19
:10114000771F881FC2F70EC0BA0F621F731F841F5C
:1011500048F4879577956795B795F7959E3F08F082
:10116000B3CF9395880F08F09927EE0F9795879541
:101170000895D9D008F481E008950CD00FC107D1AB
:1011800040F0FED030F021F45F3F19F0F0C0511173
:1011900039C1F3C014D198F39923C9F35523B1F39E
:1011A000951B550BBB27AA2762177307840738F0D6
:1011B0009F5F5F4F220F331F441FAA1FA9F333D035
:1011C0000E2E3AF0E0E830D091505040E695001CE9
:1011D000CAF729D0FE2F27D0660F771F881FBB1FA5
:1011E000261737074807AB07B0E809F0BB0B802D7F
:1011F000BF01FF2793585F4F2AF09E3F510568F0CB
:10120000B6C000C15F3FECF3983EDCF3869577955E
:101210006795B795F7959F5FC9F7880F911D9695CC
:10122000879597F90895E1E0660F771F881FBB1F28
:10123000621773078407BA0720F0621B730B840BD5
:10124000BA0BEE1F88F7E095089504D06894B111A9
:10125000D9C00895BCD088F09F5790F0B92F992736
:10126000B751A0F0D1F0660F771F881F991F1AF0B1
:10127000BA95C9F712C0B13081F0C3D0B1E008957A
:10128000C0C0672F782F8827B85F39F0B93FCCF3FB
:10129000869577956795B395D9F73EF490958095A7
:1012A000709561957F4F8F4F9F4F0895E89409C0C7
:1012B00097FB3EF490958095709561957F4F8F4F89
:1012C0009F4F9923A9F0F92F96E9BB279395F6959F
:1012D000879577956795B795F111F8CFFAF4BB0F1D
:1012E00011F460FF1BC06F5F7F4F8F4F9F4F16C081
:1012F000882311F096E911C0772321F09EE8872F0B
:10130000762F05C0662371F096E8862F70E060E0C6
:101310002AF09A95660F771F881FDAF7880F96953F
:10132000879597F90895990F0008550FAA0BE0E8E3
:10133000FEEF16161706E807F907C0F01216130697
:10134000E407F50798F0621B730B840B950B39F4D7
:101350000A2661F0232B242B252B21F408950A263D
:1013600009F4A140A6958FEF811D811D089597F97D
:101370009F6780E870E060E008959FEF80EC08953B
:1013800000240A9416161706180609060895002464
:101390000A9412161306140605060895092E0394DE
:1013A000000C11F4882352F0BB0F40F4BF2B11F452
:1013B00060FF04C06F5F7F4F8F4F9F4F089557FDB1
:1013C0009058440F551F59F05F3F71F04795880FB3
:1013D00097FB991F61F09F3F79F08795089512164A
:1013E00013061406551FF2CF4695F1DF08C01616F6
:1013F00017061806991FF1CF8695710561050894A7
:101400000895E894BB2766277727CB0197F90895BD
:101410008ADF08F48FEF08950BD0C0CFB1DF28F03A
:10142000B6DF18F0952309F0A2CFA7CF1124EACF99
:10143000C6DFA0F3959FD1F3950F50E0551F629F33
:10144000F001729FBB27F00DB11D639FAA27F00D1D
:10145000B11DAA1F649F6627B00DA11D661F829F44
:101460002227B00DA11D621F739FB00DA11D621F29
:10147000839FA00D611D221F749F3327A00D611D46
:10148000231F849F600D211D822F762F6A2F112428
:101490009F5750408AF0E1F088234AF0EE0FFF1F7B
:1014A000BB1F661F771F881F91505040A9F79E3FB2
:1014B000510570F05CCFA6CF5F3FECF3983EDCF3B4
:1014C000869577956795B795F795E7959F5FC1F7EF
:1014D000FE2B880F911D9695879597F908951F9279
:1014E0000F920FB60F9211242F933F938F939F93D8
:1014F000AF93BF9380915B0190915C01A0915D01DE
:10150000B0915E0130915A0123E0230F2D3758F539
:101510000196A11DB11D20935A0180935B01909308
:101520005C01A0935D01B0935E0180915F01909199
:101530006001A0916101B09162010196A11DB11DF0
:1015400080935F0190936001A0936101B093620169
:10155000BF91AF919F918F913F912F910F900FBEAF
:101560000F901F90189526E8230F0296A11DB11D1C
:10157000D2CF789484B5826084BD84B5816084BD07
:1015800085B5826085BD85B5816085BDEEE6F0E0FC
:10159000808181608083E1E8F0E010828081826058
:1015A0008083808181608083E0E8F0E080818160D9
:1015B0008083E1EBF0E0808184608083E0EBF0E009
:1015C000808181608083EAE7F0E0808184608083AD
:1015D0008081826080838081816080838081806857
:1015E00080831092C10008958E3008F08E502091B3
:1015F0002A0190E4299F900111248770822B809307
:101600007C0080917A00806480937A0080917A00D7
:1016100086FDFCCF809178009091790008951F930A
:10162000CF93DF93182FEB0161E07DD0209731F449
:1016300060E0812FDF91CF911F91B1C0CF3FD105E5
:1016400011F461E0F6CFE12FF0E0E859FF4FE491AB
:10165000E33031F140F4E130B1F0E230E1F0C03894
:10166000D1057CF7E5CFE73029F1E83059F1E430D6
:10167000B1F780918000806280938000D0938B00CE
:10168000C0938A0004C084B5806884BDC7BDDF9163
:10169000CF911F91089584B5806284BDC8BDF7CFF6
:1016A00080918000806880938000D0938900C093EF
:1016B0008800EDCF8091B00080688093B000C09327
:1016C000B300E5CF8091B00080628093B000C093FA
:1016D000B400DDCF833081F028F4813099F082307E
:1016E000A9F008958730A9F08830C9F08430B1F4AA
:1016F000809180008F7D03C0809180008F778093E0
:101700008000089584B58F7784BD089584B58F7D5A
:10171000FBCF8091B0008F778093B00008958091C7
:10172000B0008F7DF9CFCF93DF9390E0FC01E458B8
:10173000FF4F249180579F4FFC0184918823C9F06B
:1017400090E0880F991FFC01E255FF4FA591B491DD
:10175000FC01EC55FF4FC591D49161110DC09FB7AD
:10176000F8948C91209582238C9388812823288358
:101770009FBFDF91CF910895623051F49FB7F894E5
:101780003C91822F809583238C93E8812E2BEFCF81
:101790008FB7F894EC912E2B2C938FBFEACF1F9329
:1017A000CF93DF93282F30E0F901E859FF4F849160
:1017B000F901E458FF4FD491F901E057FF4FC4916C
:1017C000CC23A1F0162F811185DFEC2FF0E0EE0F76
:1017D000FF1FEC55FF4FA591B4918FB7F894EC9192
:1017E000111108C0D095DE23DC938FBFDF91CF911C
:1017F0001F910895DE2BF8CFFC01918D228D892F4A
:1018000090E0805C9F4F821B91098F739927089508
:10181000FC01918D828D981731F0828DE80FF11DBA
:10182000858D90E008958FEF9FEF0895FC01918DD5
:10183000828D981761F0A28DAE0FBF2FB11D5D96FE
:101840008C91928D9F5F9F73928F90E008958FEFA0
:101850009FEF0895FC01538D448D252F30E0842F98
:1018600090E0821B930B541710F0CF9608950197C8
:101870000895FC01A48DA80FB92FB11DA35ABF4F25
:101880002C91848D90E001968F739927848FA6897F
:10189000B7892C93A089B1898C91837080648C93D3
:1018A000938D848D981306C00288F389E02D808182
:1018B0008F7D80830895CF93DF93EC01888D8823FB
:1018C000B1F0AA89BB89E889F9898C9185FD03C0AB
:1018D000808186FD0CC00FB607FCF7CF8C9185FF89
:1018E000F2CF808185FFEDCFCE01C3DFEACFDF915C
:1018F000CF910895EF92FF920F931F93CF93DF93B1
:10190000EC0181E0888F9B8D8C8D98131AC0E8893B
:10191000F989808185FF15C09FB7F894EE89FF890A
:101920006083E889F98980818370806480839FBFA8
:1019300081E090E0DF91CF911F910F91FF90EF90A8
:101940000895F62E0B8D10E00F5F1F4F0F731127B8
:10195000E02E8C8D8E110BC00FB607FCFACFE889F4
:10196000F989808185FFF5CFCE0183DFF2CFEB8D42
:10197000EC0FFD2FF11DE35AFF4FF0829FB7F89453
:101980000B8FEA89FB8980818062D0CFCF92DF9272
:10199000EF92FF921F93CF93DF93EC016A017B01DB
:1019A000122FE889F98982E08083C11481EED8067C
:1019B000E104F10499F060E079E08DE390E0A701A3
:1019C0009601F5D0215031094109510956954795A5
:1019D00037952795211580E1380790F0E889F98936
:1019E000108260E874E88EE190E0A7019601DFD0F4
:1019F0002150310941095109569547953795279549
:101A0000EC85FD853083EE85FF852083188EEC897B
:101A1000FD891083EA89FB89808180618083EA895E
:101A2000FB89808188608083EA89FB898081806866
:101A30008083EA89FB8980818F7D8083DF91CF91CC
:101A40001F91FF90EF90DF90CF9008951F920F921B
:101A50000FB60F9211242F938F939F93EF93FF93C1
:101A6000E0917301F09174018081E0917901F0912E
:101A70007A0182FD1BC0908180917C018F5F8F7302
:101A800020917D01821741F0E0917C01F0E0ED5959
:101A9000FE4F958F80937C01FF91EF919F918F91E5
:101AA0002F910F900FBE0F901F9018958081F4CF4B
:101AB0001F920F920FB60F9211242F933F934F93C3
:101AC0005F936F937F938F939F93AF93BF93EF93A6
:101AD000FF9383E691E0CDDEFF91EF91BF91AF914F
:101AE0009F918F917F916F915F914F913F912F9136
:101AF0000F900FBE0F901F901895E3E6F1E0138250
:101B0000128288EE93E0A0E0B0E084839583A68300
:101B1000B78386E391E09183808385EC90E095879D
:101B2000848784EC90E09787868780EC90E0918BA7
:101B3000808B81EC90E0938B828B82EC90E0958B94
:101B4000848B86EC90E0978B868B118E128E138E91
:101B5000148E0895AF92BF92CF92DF92EF92FF92D0
:101B60000F931F93CF93DF936C017B018B01040FC5
:101B7000151FEB015E01AE18BF08C017D10759F061
:101B80006991D601ED91FC910190F081E02DC601A3
:101B90000995892B79F7C501DF91CF911F910F919D
:101BA000FF90EF90DF90CF90BF90AF900895A1E2AB
:101BB0001A2EAA1BBB1BFD010DC0AA1FBB1FEE1FC7
:101BC000FF1FA217B307E407F50720F0A21BB30B12
:101BD000E40BF50B661F771F881F991F1A9469F78E
:101BE00060957095809590959B01AC01BD01CF01EA
:101BF0000895A29FB001B39FC001A39F700D811DE6
:101C00001124911DB29F700D811D1124911D089505
:101C1000EE0FFF1F0590F491E02D0994F894FFCF8B
:101C2000000080BF000048420000203F0AD7233D4B
:101C300000004842CDCCCC3D000000000000004038
:101C400000007F4300000000679C016F6465330063
:101C50000002000000007A0CAA0D2A0C5B0CFC0BA1
:041C6000160C080C4A
:00000001FF
